{
    "_format": "hh-sol-artifact-1",
    "contractName": "BookLibrary",
    "sourceName": "contracts/BookLibrary.sol",
    "abi": [
        {
            "anonymous": false,
            "inputs": [
                {
                    "indexed": false,
                    "internalType": "string",
                    "name": "_bookName",
                    "type": "string"
                },
                {
                    "indexed": false,
                    "internalType": "uint256",
                    "name": "_copies",
                    "type": "uint256"
                }
            ],
            "name": "AddedBook",
            "type": "event"
        },
        {
            "anonymous": false,
            "inputs": [
                {
                    "indexed": false,
                    "internalType": "string",
                    "name": "_bookName",
                    "type": "string"
                },
                {
                    "indexed": false,
                    "internalType": "uint256",
                    "name": "_copies",
                    "type": "uint256"
                }
            ],
            "name": "AdjustCopies",
            "type": "event"
        },
        {
            "anonymous": false,
            "inputs": [
                {
                    "indexed": false,
                    "internalType": "string",
                    "name": "_bookName",
                    "type": "string"
                },
                {
                    "indexed": false,
                    "internalType": "address",
                    "name": "_address",
                    "type": "address"
                }
            ],
            "name": "BorrowedBook",
            "type": "event"
        },
        {
            "anonymous": false,
            "inputs": [
                {
                    "indexed": true,
                    "internalType": "address",
                    "name": "previousOwner",
                    "type": "address"
                },
                {
                    "indexed": true,
                    "internalType": "address",
                    "name": "newOwner",
                    "type": "address"
                }
            ],
            "name": "OwnershipTransferred",
            "type": "event"
        },
        {
            "anonymous": false,
            "inputs": [
                {
                    "indexed": false,
                    "internalType": "string",
                    "name": "_bookName",
                    "type": "string"
                },
                {
                    "indexed": false,
                    "internalType": "address",
                    "name": "_address",
                    "type": "address"
                }
            ],
            "name": "ReturnedBook",
            "type": "event"
        },
        {
            "inputs": [
                {
                    "internalType": "string",
                    "name": "_bookName",
                    "type": "string"
                },
                {
                    "internalType": "uint256",
                    "name": "_copies",
                    "type": "uint256"
                }
            ],
            "name": "addBook",
            "outputs": [],
            "stateMutability": "nonpayable",
            "type": "function"
        },
        {
            "inputs": [
                {
                    "internalType": "uint256",
                    "name": "",
                    "type": "uint256"
                }
            ],
            "name": "bookKeys",
            "outputs": [
                {
                    "internalType": "bytes32",
                    "name": "",
                    "type": "bytes32"
                }
            ],
            "stateMutability": "view",
            "type": "function"
        },
        {
            "inputs": [
                {
                    "internalType": "bytes32",
                    "name": "",
                    "type": "bytes32"
                }
            ],
            "name": "books",
            "outputs": [
                {
                    "internalType": "string",
                    "name": "name",
                    "type": "string"
                },
                {
                    "internalType": "uint256",
                    "name": "copies",
                    "type": "uint256"
                }
            ],
            "stateMutability": "view",
            "type": "function"
        },
        {
            "inputs": [
                {
                    "internalType": "string",
                    "name": "_bookName",
                    "type": "string"
                }
            ],
            "name": "borrowBook",
            "outputs": [],
            "stateMutability": "nonpayable",
            "type": "function"
        },
        {
            "inputs": [],
            "name": "getNumberOfBooks",
            "outputs": [
                {
                    "internalType": "uint256",
                    "name": "_numberOfBooks",
                    "type": "uint256"
                }
            ],
            "stateMutability": "view",
            "type": "function"
        },
        {
            "inputs": [],
            "name": "owner",
            "outputs": [
                {
                    "internalType": "address",
                    "name": "",
                    "type": "address"
                }
            ],
            "stateMutability": "view",
            "type": "function"
        },
        {
            "inputs": [],
            "name": "renounceOwnership",
            "outputs": [],
            "stateMutability": "nonpayable",
            "type": "function"
        },
        {
            "inputs": [
                {
                    "internalType": "string",
                    "name": "_bookName",
                    "type": "string"
                }
            ],
            "name": "returnBook",
            "outputs": [],
            "stateMutability": "nonpayable",
            "type": "function"
        },
        {
            "inputs": [
                {
                    "internalType": "address",
                    "name": "newOwner",
                    "type": "address"
                }
            ],
            "name": "transferOwnership",
            "outputs": [],
            "stateMutability": "nonpayable",
            "type": "function"
        }
    ],
    "bytecode": "0x608060405234801561001057600080fd5b5061002d61002261003260201b60201c565b61003a60201b60201c565b6100fe565b600033905090565b60008060009054906101000a900473ffffffffffffffffffffffffffffffffffffffff169050816000806101000a81548173ffffffffffffffffffffffffffffffffffffffff021916908373ffffffffffffffffffffffffffffffffffffffff1602179055508173ffffffffffffffffffffffffffffffffffffffff168173ffffffffffffffffffffffffffffffffffffffff167f8be0079c531659141344cd1fd0a4f28419497f9722a3daafe3b4186f6b6457e060405160405180910390a35050565b6119848061010d6000396000f3fe608060405234801561001057600080fd5b50600436106100935760003560e01c80638625f9d2116100665780638625f9d21461010b5780638da5cb5b14610129578063ced96fe314610147578063dae47ab014610163578063f2fde38b1461019357610093565b80630c0dee70146100985780631ef49a8c146100c9578063637a3872146100e5578063715018a614610101575b600080fd5b6100b260048036038101906100ad9190610c36565b6101af565b6040516100c0929190610d0c565b60405180910390f35b6100e360048036038101906100de9190610da1565b61025b565b005b6100ff60048036038101906100fa9190610f4a565b6103fa565b005b61010961060c565b005b610113610620565b6040516101209190610fa6565b60405180910390f35b61013161062d565b60405161013e9190611002565b60405180910390f35b610161600480360381019061015c919061101d565b610656565b005b61017d60048036038101906101789190611066565b610954565b60405161018a91906110a2565b60405180910390f35b6101ad60048036038101906101a891906110e9565b610978565b005b60026020528060005260406000206000915090508060000180546101d290611145565b80601f01602080910402602001604051908101604052809291908181526020018280546101fe90611145565b801561024b5780601f106102205761010080835404028352916020019161024b565b820191906000526020600020905b81548152906001019060200180831161022e57829003601f168201915b5050505050908060010154905082565b600082826040516020016102709291906111a6565b604051602081830303815290604052805190602001209050600360003373ffffffffffffffffffffffffffffffffffffffff1673ffffffffffffffffffffffffffffffffffffffff168152602001908152602001600020600082815260200190815260200160002060009054906101000a900460ff16610325576040517f08c379a000000000000000000000000000000000000000000000000000000000815260040161031c9061120b565b60405180910390fd5b6000600360003373ffffffffffffffffffffffffffffffffffffffff1673ffffffffffffffffffffffffffffffffffffffff168152602001908152602001600020600083815260200190815260200160002060006101000a81548160ff0219169083151502179055506002600082815260200190815260200160002060010160008154809291906103b59061125a565b91905055507f6786f6abe154978de9c8a6614b761e1531cb6ff9856273260078a5346956228b8383336040516103ed939291906112cf565b60405180910390a1505050565b6104026109fb565b818160008290506000815111801561041a5750600082115b610459576040517f08c379a00000000000000000000000000000000000000000000000000000000081526004016104509061134d565b60405180910390fd5b606060008660405160200161046e919061139e565b60405160208183030381529060405280519060200120905060006002600083815260200190815260200160002060000180546104a990611145565b9050111561053257856002600083815260200190815260200160002060010160008282546104d791906113b5565b925050819055507ffe545c92d053c8bc4ddb5d531460c004b9d678f817d5e81a888f7c5cae1f1405876002600084815260200190815260200160002060010154604051610525929190610d0c565b60405180910390a1610603565b6040518060600160405280888152602001878152602001838152506002600083815260200190815260200160002060008201518160000190816105759190611595565b5060208201518160010155604082015181600201908051906020019061059c929190610b45565b5090505060018190806001815401808255809150506001900390600052602060002001600090919091909150557f94d055d37a53d04c9314a2b6c9d1199dc9330c877f88717dd6a030aed2c3b55087876040516105fa929190610d0c565b60405180910390a15b50505050505050565b6106146109fb565b61061e6000610a79565b565b6000600180549050905090565b60008060009054906101000a900473ffffffffffffffffffffffffffffffffffffffff16905090565b806000600260008360405160200161066e919061139e565b60405160208183030381529060405280519060200120815260200190815260200160002060000180546106a090611145565b9050036106e2576040517f08c379a00000000000000000000000000000000000000000000000000000000081526004016106d9906116b3565b60405180910390fd5b6000826040516020016106f5919061139e565b6040516020818303038152906040528051906020012090506000600260008381526020019081526020016000206001015411610766576040517f08c379a000000000000000000000000000000000000000000000000000000000815260040161075d90611745565b60405180910390fd5b60001515600360003373ffffffffffffffffffffffffffffffffffffffff1673ffffffffffffffffffffffffffffffffffffffff168152602001908152602001600020600083815260200190815260200160002060009054906101000a900460ff1615151461080a576040517f08c379a0000000000000000000000000000000000000000000000000000000008152600401610801906117d7565b60405180910390fd5b6001600360003373ffffffffffffffffffffffffffffffffffffffff1673ffffffffffffffffffffffffffffffffffffffff168152602001908152602001600020600083815260200190815260200160002060006101000a81548160ff02191690831515021790555060026000828152602001908152602001600020600101600081548092919061089a906117f7565b919050555060026000828152602001908152602001600020600201339080600181540180825580915050600190039060005260206000200160009091909190916101000a81548173ffffffffffffffffffffffffffffffffffffffff021916908373ffffffffffffffffffffffffffffffffffffffff1602179055507fd753078f5c8fe6a92948408295362b4dcc47c348c5e915c6672771bd4a6b3d278333604051610947929190611820565b60405180910390a1505050565b6001818154811061096457600080fd5b906000526020600020016000915090505481565b6109806109fb565b600073ffffffffffffffffffffffffffffffffffffffff168173ffffffffffffffffffffffffffffffffffffffff16036109ef576040517f08c379a00000000000000000000000000000000000000000000000000000000081526004016109e6906118c2565b60405180910390fd5b6109f881610a79565b50565b610a03610b3d565b73ffffffffffffffffffffffffffffffffffffffff16610a2161062d565b73ffffffffffffffffffffffffffffffffffffffff1614610a77576040517f08c379a0000000000000000000000000000000000000000000000000000000008152600401610a6e9061192e565b60405180910390fd5b565b60008060009054906101000a900473ffffffffffffffffffffffffffffffffffffffff169050816000806101000a81548173ffffffffffffffffffffffffffffffffffffffff021916908373ffffffffffffffffffffffffffffffffffffffff1602179055508173ffffffffffffffffffffffffffffffffffffffff168173ffffffffffffffffffffffffffffffffffffffff167f8be0079c531659141344cd1fd0a4f28419497f9722a3daafe3b4186f6b6457e060405160405180910390a35050565b600033905090565b828054828255906000526020600020908101928215610bbe579160200282015b82811115610bbd5782518260006101000a81548173ffffffffffffffffffffffffffffffffffffffff021916908373ffffffffffffffffffffffffffffffffffffffff16021790555091602001919060010190610b65565b5b509050610bcb9190610bcf565b5090565b5b80821115610be8576000816000905550600101610bd0565b5090565b6000604051905090565b600080fd5b600080fd5b6000819050919050565b610c1381610c00565b8114610c1e57600080fd5b50565b600081359050610c3081610c0a565b92915050565b600060208284031215610c4c57610c4b610bf6565b5b6000610c5a84828501610c21565b91505092915050565b600081519050919050565b600082825260208201905092915050565b60005b83811015610c9d578082015181840152602081019050610c82565b60008484015250505050565b6000601f19601f8301169050919050565b6000610cc582610c63565b610ccf8185610c6e565b9350610cdf818560208601610c7f565b610ce881610ca9565b840191505092915050565b6000819050919050565b610d0681610cf3565b82525050565b60006040820190508181036000830152610d268185610cba565b9050610d356020830184610cfd565b9392505050565b600080fd5b600080fd5b600080fd5b60008083601f840112610d6157610d60610d3c565b5b8235905067ffffffffffffffff811115610d7e57610d7d610d41565b5b602083019150836001820283011115610d9a57610d99610d46565b5b9250929050565b60008060208385031215610db857610db7610bf6565b5b600083013567ffffffffffffffff811115610dd657610dd5610bfb565b5b610de285828601610d4b565b92509250509250929050565b600080fd5b7f4e487b7100000000000000000000000000000000000000000000000000000000600052604160045260246000fd5b610e2b82610ca9565b810181811067ffffffffffffffff82111715610e4a57610e49610df3565b5b80604052505050565b6000610e5d610bec565b9050610e698282610e22565b919050565b600067ffffffffffffffff821115610e8957610e88610df3565b5b610e9282610ca9565b9050602081019050919050565b82818337600083830152505050565b6000610ec1610ebc84610e6e565b610e53565b905082815260208101848484011115610edd57610edc610dee565b5b610ee8848285610e9f565b509392505050565b600082601f830112610f0557610f04610d3c565b5b8135610f15848260208601610eae565b91505092915050565b610f2781610cf3565b8114610f3257600080fd5b50565b600081359050610f4481610f1e565b92915050565b60008060408385031215610f6157610f60610bf6565b5b600083013567ffffffffffffffff811115610f7f57610f7e610bfb565b5b610f8b85828601610ef0565b9250506020610f9c85828601610f35565b9150509250929050565b6000602082019050610fbb6000830184610cfd565b92915050565b600073ffffffffffffffffffffffffffffffffffffffff82169050919050565b6000610fec82610fc1565b9050919050565b610ffc81610fe1565b82525050565b60006020820190506110176000830184610ff3565b92915050565b60006020828403121561103357611032610bf6565b5b600082013567ffffffffffffffff81111561105157611050610bfb565b5b61105d84828501610ef0565b91505092915050565b60006020828403121561107c5761107b610bf6565b5b600061108a84828501610f35565b91505092915050565b61109c81610c00565b82525050565b60006020820190506110b76000830184611093565b92915050565b6110c681610fe1565b81146110d157600080fd5b50565b6000813590506110e3816110bd565b92915050565b6000602082840312156110ff576110fe610bf6565b5b600061110d848285016110d4565b91505092915050565b7f4e487b7100000000000000000000000000000000000000000000000000000000600052602260045260246000fd5b6000600282049050600182168061115d57607f821691505b6020821081036111705761116f611116565b5b50919050565b600081905092915050565b600061118d8385611176565b935061119a838584610e9f565b82840190509392505050565b60006111b3828486611181565b91508190509392505050565b7f596f7520646f6e27742068617665207468697320626f6f6b0000000000000000600082015250565b60006111f5601883610c6e565b9150611200826111bf565b602082019050919050565b60006020820190508181036000830152611224816111e8565b9050919050565b7f4e487b7100000000000000000000000000000000000000000000000000000000600052601160045260246000fd5b600061126582610cf3565b91507fffffffffffffffffffffffffffffffffffffffffffffffffffffffffffffffff82036112975761129661122b565b5b600182019050919050565b60006112ae8385610c6e565b93506112bb838584610e9f565b6112c483610ca9565b840190509392505050565b600060408201905081810360008301526112ea8185876112a2565b90506112f96020830184610ff3565b949350505050565b7f426f6f6b2064617461206973206e6f742076616c696400000000000000000000600082015250565b6000611337601683610c6e565b915061134282611301565b602082019050919050565b600060208201905081810360008301526113668161132a565b9050919050565b600061137882610c63565b6113828185611176565b9350611392818560208601610c7f565b80840191505092915050565b60006113aa828461136d565b915081905092915050565b60006113c082610cf3565b91506113cb83610cf3565b92508282019050808211156113e3576113e261122b565b5b92915050565b60008190508160005260206000209050919050565b60006020601f8301049050919050565b600082821b905092915050565b60006008830261144b7fffffffffffffffffffffffffffffffffffffffffffffffffffffffffffffffff8261140e565b611455868361140e565b95508019841693508086168417925050509392505050565b6000819050919050565b600061149261148d61148884610cf3565b61146d565b610cf3565b9050919050565b6000819050919050565b6114ac83611477565b6114c06114b882611499565b84845461141b565b825550505050565b600090565b6114d56114c8565b6114e08184846114a3565b505050565b5b81811015611504576114f96000826114cd565b6001810190506114e6565b5050565b601f8211156115495761151a816113e9565b611523846113fe565b81016020851015611532578190505b61154661153e856113fe565b8301826114e5565b50505b505050565b600082821c905092915050565b600061156c6000198460080261154e565b1980831691505092915050565b6000611585838361155b565b9150826002028217905092915050565b61159e82610c63565b67ffffffffffffffff8111156115b7576115b6610df3565b5b6115c18254611145565b6115cc828285611508565b600060209050601f8311600181146115ff57600084156115ed578287015190505b6115f78582611579565b86555061165f565b601f19841661160d866113e9565b60005b8281101561163557848901518255600182019150602085019450602081019050611610565b86831015611652578489015161164e601f89168261155b565b8355505b6001600288020188555050505b505050505050565b7f5468697320626f6f6b20646f65736e2774206578697374730000000000000000600082015250565b600061169d601883610c6e565b91506116a882611667565b602082019050919050565b600060208201905081810360008301526116cc81611690565b9050919050565b7f417420746865206d6f6d656e742c20746865206c69627261727920646f65736e60008201527f2774206861766520636f7079206f66207468697320626f6f6b2e000000000000602082015250565b600061172f603a83610c6e565b915061173a826116d3565b604082019050919050565b6000602082019050818103600083015261175e81611722565b9050919050565b7f54686973206164647265737320616c726561647920626f72726f77656420746860008201527f697320626f6f6b2e000000000000000000000000000000000000000000000000602082015250565b60006117c1602883610c6e565b91506117cc82611765565b604082019050919050565b600060208201905081810360008301526117f0816117b4565b9050919050565b600061180282610cf3565b9150600082036118155761181461122b565b5b600182039050919050565b6000604082019050818103600083015261183a8185610cba565b90506118496020830184610ff3565b9392505050565b7f4f776e61626c653a206e6577206f776e657220697320746865207a65726f206160008201527f6464726573730000000000000000000000000000000000000000000000000000602082015250565b60006118ac602683610c6e565b91506118b782611850565b604082019050919050565b600060208201905081810360008301526118db8161189f565b9050919050565b7f4f776e61626c653a2063616c6c6572206973206e6f7420746865206f776e6572600082015250565b6000611918602083610c6e565b9150611923826118e2565b602082019050919050565b600060208201905081810360008301526119478161190b565b905091905056fea264697066735822122096fe1d7f45255b97e68117cc3a38038e564e990481ed696aa6292e69ed0b844664736f6c63430008110033",
    "linkReferences": {},
    "deployedLinkReferences": {}
}