{
    "_format": "hh-sol-artifact-1",
    "contractName": "BookLibrary",
    "sourceName": "contracts/BookLibrary.sol",
    "abi": [
        {
            "anonymous": false,
            "inputs": [
                {
                    "indexed": false,
                    "internalType": "string",
                    "name": "_bookName",
                    "type": "string"
                },
                {
                    "indexed": false,
                    "internalType": "uint256",
                    "name": "_copies",
                    "type": "uint256"
                }
            ],
            "name": "AddedBook",
            "type": "event"
        },
        {
            "anonymous": false,
            "inputs": [
                {
                    "indexed": false,
                    "internalType": "string",
                    "name": "_bookName",
                    "type": "string"
                },
                {
                    "indexed": false,
                    "internalType": "uint256",
                    "name": "_copies",
                    "type": "uint256"
                }
            ],
            "name": "AdjustCopies",
            "type": "event"
        },
        {
            "anonymous": false,
            "inputs": [
                {
                    "indexed": false,
                    "internalType": "string",
                    "name": "_bookName",
                    "type": "string"
                },
                {
                    "indexed": false,
                    "internalType": "address",
                    "name": "_address",
                    "type": "address"
                }
            ],
            "name": "BorrowedBook",
            "type": "event"
        },
        {
            "anonymous": false,
            "inputs": [
                {
                    "indexed": true,
                    "internalType": "address",
                    "name": "previousOwner",
                    "type": "address"
                },
                {
                    "indexed": true,
                    "internalType": "address",
                    "name": "newOwner",
                    "type": "address"
                }
            ],
            "name": "OwnershipTransferred",
            "type": "event"
        },
        {
            "anonymous": false,
            "inputs": [
                {
                    "indexed": false,
                    "internalType": "string",
                    "name": "_bookName",
                    "type": "string"
                },
                {
                    "indexed": false,
                    "internalType": "address",
                    "name": "_address",
                    "type": "address"
                }
            ],
            "name": "ReturnedBook",
            "type": "event"
        },
        {
            "inputs": [
                {
                    "internalType": "string",
                    "name": "_bookName",
                    "type": "string"
                },
                {
                    "internalType": "uint256",
                    "name": "_copies",
                    "type": "uint256"
                }
            ],
            "name": "addBook",
            "outputs": [],
            "stateMutability": "nonpayable",
            "type": "function"
        },
        {
            "inputs": [
                {
                    "internalType": "uint256",
                    "name": "",
                    "type": "uint256"
                }
            ],
            "name": "bookKeys",
            "outputs": [
                {
                    "internalType": "bytes32",
                    "name": "",
                    "type": "bytes32"
                }
            ],
            "stateMutability": "view",
            "type": "function"
        },
        {
            "inputs": [
                {
                    "internalType": "bytes32",
                    "name": "",
                    "type": "bytes32"
                }
            ],
            "name": "books",
            "outputs": [
                {
                    "internalType": "string",
                    "name": "name",
                    "type": "string"
                },
                {
                    "internalType": "uint256",
                    "name": "copies",
                    "type": "uint256"
                }
            ],
            "stateMutability": "view",
            "type": "function"
        },
        {
            "inputs": [
                {
                    "internalType": "string",
                    "name": "_bookName",
                    "type": "string"
                }
            ],
            "name": "borrowBook",
            "outputs": [],
            "stateMutability": "nonpayable",
            "type": "function"
        },
        {
            "inputs": [
                {
                    "internalType": "address",
                    "name": "",
                    "type": "address"
                },
                {
                    "internalType": "bytes32",
                    "name": "",
                    "type": "bytes32"
                }
            ],
            "name": "borrowedBook",
            "outputs": [
                {
                    "internalType": "bool",
                    "name": "",
                    "type": "bool"
                }
            ],
            "stateMutability": "view",
            "type": "function"
        },
        {
            "inputs": [],
            "name": "getNumberOfBooks",
            "outputs": [
                {
                    "internalType": "uint256",
                    "name": "_numberOfBooks",
                    "type": "uint256"
                }
            ],
            "stateMutability": "view",
            "type": "function"
        },
        {
            "inputs": [],
            "name": "owner",
            "outputs": [
                {
                    "internalType": "address",
                    "name": "",
                    "type": "address"
                }
            ],
            "stateMutability": "view",
            "type": "function"
        },
        {
            "inputs": [],
            "name": "renounceOwnership",
            "outputs": [],
            "stateMutability": "nonpayable",
            "type": "function"
        },
        {
            "inputs": [
                {
                    "internalType": "string",
                    "name": "_bookName",
                    "type": "string"
                }
            ],
            "name": "returnBook",
            "outputs": [],
            "stateMutability": "nonpayable",
            "type": "function"
        },
        {
            "inputs": [
                {
                    "internalType": "address",
                    "name": "newOwner",
                    "type": "address"
                }
            ],
            "name": "transferOwnership",
            "outputs": [],
            "stateMutability": "nonpayable",
            "type": "function"
        }
    ],
    "bytecode": "0x608060405234801561001057600080fd5b5061002d61002261003260201b60201c565b61003a60201b60201c565b6100fe565b600033905090565b60008060009054906101000a900473ffffffffffffffffffffffffffffffffffffffff169050816000806101000a81548173ffffffffffffffffffffffffffffffffffffffff021916908373ffffffffffffffffffffffffffffffffffffffff1602179055508173ffffffffffffffffffffffffffffffffffffffff168173ffffffffffffffffffffffffffffffffffffffff167f8be0079c531659141344cd1fd0a4f28419497f9722a3daafe3b4186f6b6457e060405160405180910390a35050565b611a648061010d6000396000f3fe608060405234801561001057600080fd5b506004361061009e5760003560e01c80638da5cb5b116100665780638da5cb5b14610134578063bddc6fa714610152578063ced96fe314610182578063dae47ab01461019e578063f2fde38b146101ce5761009e565b80630c0dee70146100a35780631ef49a8c146100d4578063637a3872146100f0578063715018a61461010c5780638625f9d214610116575b600080fd5b6100bd60048036038101906100b89190610ca0565b6101ea565b6040516100cb929190610d76565b60405180910390f35b6100ee60048036038101906100e99190610e0b565b610296565b005b61010a60048036038101906101059190610fb4565b610435565b005b610114610647565b005b61011e61065b565b60405161012b9190611010565b60405180910390f35b61013c610668565b604051610149919061106c565b60405180910390f35b61016c600480360381019061016791906110b3565b610691565b604051610179919061110e565b60405180910390f35b61019c60048036038101906101979190611129565b6106c0565b005b6101b860048036038101906101b39190611172565b6109be565b6040516101c591906111ae565b60405180910390f35b6101e860048036038101906101e391906111c9565b6109e2565b005b600260205280600052604060002060009150905080600001805461020d90611225565b80601f016020809104026020016040519081016040528092919081815260200182805461023990611225565b80156102865780601f1061025b57610100808354040283529160200191610286565b820191906000526020600020905b81548152906001019060200180831161026957829003601f168201915b5050505050908060010154905082565b600082826040516020016102ab929190611286565b604051602081830303815290604052805190602001209050600360003373ffffffffffffffffffffffffffffffffffffffff1673ffffffffffffffffffffffffffffffffffffffff168152602001908152602001600020600082815260200190815260200160002060009054906101000a900460ff16610360576040517f08c379a0000000000000000000000000000000000000000000000000000000008152600401610357906112eb565b60405180910390fd5b6000600360003373ffffffffffffffffffffffffffffffffffffffff1673ffffffffffffffffffffffffffffffffffffffff168152602001908152602001600020600083815260200190815260200160002060006101000a81548160ff0219169083151502179055506002600082815260200190815260200160002060010160008154809291906103f09061133a565b91905055507f6786f6abe154978de9c8a6614b761e1531cb6ff9856273260078a5346956228b838333604051610428939291906113af565b60405180910390a1505050565b61043d610a65565b81816000829050600081511180156104555750600082115b610494576040517f08c379a000000000000000000000000000000000000000000000000000000000815260040161048b9061142d565b60405180910390fd5b60606000866040516020016104a9919061147e565b60405160208183030381529060405280519060200120905060006002600083815260200190815260200160002060000180546104e490611225565b9050111561056d57856002600083815260200190815260200160002060010160008282546105129190611495565b925050819055507ffe545c92d053c8bc4ddb5d531460c004b9d678f817d5e81a888f7c5cae1f1405876002600084815260200190815260200160002060010154604051610560929190610d76565b60405180910390a161063e565b6040518060600160405280888152602001878152602001838152506002600083815260200190815260200160002060008201518160000190816105b09190611675565b506020820151816001015560408201518160020190805190602001906105d7929190610baf565b5090505060018190806001815401808255809150506001900390600052602060002001600090919091909150557f94d055d37a53d04c9314a2b6c9d1199dc9330c877f88717dd6a030aed2c3b5508787604051610635929190610d76565b60405180910390a15b50505050505050565b61064f610a65565b6106596000610ae3565b565b6000600180549050905090565b60008060009054906101000a900473ffffffffffffffffffffffffffffffffffffffff16905090565b60036020528160005260406000206020528060005260406000206000915091509054906101000a900460ff1681565b80600060026000836040516020016106d8919061147e565b604051602081830303815290604052805190602001208152602001908152602001600020600001805461070a90611225565b90500361074c576040517f08c379a000000000000000000000000000000000000000000000000000000000815260040161074390611793565b60405180910390fd5b60008260405160200161075f919061147e565b60405160208183030381529060405280519060200120905060006002600083815260200190815260200160002060010154116107d0576040517f08c379a00000000000000000000000000000000000000000000000000000000081526004016107c790611825565b60405180910390fd5b60001515600360003373ffffffffffffffffffffffffffffffffffffffff1673ffffffffffffffffffffffffffffffffffffffff168152602001908152602001600020600083815260200190815260200160002060009054906101000a900460ff16151514610874576040517f08c379a000000000000000000000000000000000000000000000000000000000815260040161086b906118b7565b60405180910390fd5b6001600360003373ffffffffffffffffffffffffffffffffffffffff1673ffffffffffffffffffffffffffffffffffffffff168152602001908152602001600020600083815260200190815260200160002060006101000a81548160ff021916908315150217905550600260008281526020019081526020016000206001016000815480929190610904906118d7565b919050555060026000828152602001908152602001600020600201339080600181540180825580915050600190039060005260206000200160009091909190916101000a81548173ffffffffffffffffffffffffffffffffffffffff021916908373ffffffffffffffffffffffffffffffffffffffff1602179055507fd753078f5c8fe6a92948408295362b4dcc47c348c5e915c6672771bd4a6b3d2783336040516109b1929190611900565b60405180910390a1505050565b600181815481106109ce57600080fd5b906000526020600020016000915090505481565b6109ea610a65565b600073ffffffffffffffffffffffffffffffffffffffff168173ffffffffffffffffffffffffffffffffffffffff1603610a59576040517f08c379a0000000000000000000000000000000000000000000000000000000008152600401610a50906119a2565b60405180910390fd5b610a6281610ae3565b50565b610a6d610ba7565b73ffffffffffffffffffffffffffffffffffffffff16610a8b610668565b73ffffffffffffffffffffffffffffffffffffffff1614610ae1576040517f08c379a0000000000000000000000000000000000000000000000000000000008152600401610ad890611a0e565b60405180910390fd5b565b60008060009054906101000a900473ffffffffffffffffffffffffffffffffffffffff169050816000806101000a81548173ffffffffffffffffffffffffffffffffffffffff021916908373ffffffffffffffffffffffffffffffffffffffff1602179055508173ffffffffffffffffffffffffffffffffffffffff168173ffffffffffffffffffffffffffffffffffffffff167f8be0079c531659141344cd1fd0a4f28419497f9722a3daafe3b4186f6b6457e060405160405180910390a35050565b600033905090565b828054828255906000526020600020908101928215610c28579160200282015b82811115610c275782518260006101000a81548173ffffffffffffffffffffffffffffffffffffffff021916908373ffffffffffffffffffffffffffffffffffffffff16021790555091602001919060010190610bcf565b5b509050610c359190610c39565b5090565b5b80821115610c52576000816000905550600101610c3a565b5090565b6000604051905090565b600080fd5b600080fd5b6000819050919050565b610c7d81610c6a565b8114610c8857600080fd5b50565b600081359050610c9a81610c74565b92915050565b600060208284031215610cb657610cb5610c60565b5b6000610cc484828501610c8b565b91505092915050565b600081519050919050565b600082825260208201905092915050565b60005b83811015610d07578082015181840152602081019050610cec565b60008484015250505050565b6000601f19601f8301169050919050565b6000610d2f82610ccd565b610d398185610cd8565b9350610d49818560208601610ce9565b610d5281610d13565b840191505092915050565b6000819050919050565b610d7081610d5d565b82525050565b60006040820190508181036000830152610d908185610d24565b9050610d9f6020830184610d67565b9392505050565b600080fd5b600080fd5b600080fd5b60008083601f840112610dcb57610dca610da6565b5b8235905067ffffffffffffffff811115610de857610de7610dab565b5b602083019150836001820283011115610e0457610e03610db0565b5b9250929050565b60008060208385031215610e2257610e21610c60565b5b600083013567ffffffffffffffff811115610e4057610e3f610c65565b5b610e4c85828601610db5565b92509250509250929050565b600080fd5b7f4e487b7100000000000000000000000000000000000000000000000000000000600052604160045260246000fd5b610e9582610d13565b810181811067ffffffffffffffff82111715610eb457610eb3610e5d565b5b80604052505050565b6000610ec7610c56565b9050610ed38282610e8c565b919050565b600067ffffffffffffffff821115610ef357610ef2610e5d565b5b610efc82610d13565b9050602081019050919050565b82818337600083830152505050565b6000610f2b610f2684610ed8565b610ebd565b905082815260208101848484011115610f4757610f46610e58565b5b610f52848285610f09565b509392505050565b600082601f830112610f6f57610f6e610da6565b5b8135610f7f848260208601610f18565b91505092915050565b610f9181610d5d565b8114610f9c57600080fd5b50565b600081359050610fae81610f88565b92915050565b60008060408385031215610fcb57610fca610c60565b5b600083013567ffffffffffffffff811115610fe957610fe8610c65565b5b610ff585828601610f5a565b925050602061100685828601610f9f565b9150509250929050565b60006020820190506110256000830184610d67565b92915050565b600073ffffffffffffffffffffffffffffffffffffffff82169050919050565b60006110568261102b565b9050919050565b6110668161104b565b82525050565b6000602082019050611081600083018461105d565b92915050565b6110908161104b565b811461109b57600080fd5b50565b6000813590506110ad81611087565b92915050565b600080604083850312156110ca576110c9610c60565b5b60006110d88582860161109e565b92505060206110e985828601610c8b565b9150509250929050565b60008115159050919050565b611108816110f3565b82525050565b600060208201905061112360008301846110ff565b92915050565b60006020828403121561113f5761113e610c60565b5b600082013567ffffffffffffffff81111561115d5761115c610c65565b5b61116984828501610f5a565b91505092915050565b60006020828403121561118857611187610c60565b5b600061119684828501610f9f565b91505092915050565b6111a881610c6a565b82525050565b60006020820190506111c3600083018461119f565b92915050565b6000602082840312156111df576111de610c60565b5b60006111ed8482850161109e565b91505092915050565b7f4e487b7100000000000000000000000000000000000000000000000000000000600052602260045260246000fd5b6000600282049050600182168061123d57607f821691505b6020821081036112505761124f6111f6565b5b50919050565b600081905092915050565b600061126d8385611256565b935061127a838584610f09565b82840190509392505050565b6000611293828486611261565b91508190509392505050565b7f596f7520646f6e27742068617665207468697320626f6f6b0000000000000000600082015250565b60006112d5601883610cd8565b91506112e08261129f565b602082019050919050565b60006020820190508181036000830152611304816112c8565b9050919050565b7f4e487b7100000000000000000000000000000000000000000000000000000000600052601160045260246000fd5b600061134582610d5d565b91507fffffffffffffffffffffffffffffffffffffffffffffffffffffffffffffffff82036113775761137661130b565b5b600182019050919050565b600061138e8385610cd8565b935061139b838584610f09565b6113a483610d13565b840190509392505050565b600060408201905081810360008301526113ca818587611382565b90506113d9602083018461105d565b949350505050565b7f426f6f6b2064617461206973206e6f742076616c696400000000000000000000600082015250565b6000611417601683610cd8565b9150611422826113e1565b602082019050919050565b600060208201905081810360008301526114468161140a565b9050919050565b600061145882610ccd565b6114628185611256565b9350611472818560208601610ce9565b80840191505092915050565b600061148a828461144d565b915081905092915050565b60006114a082610d5d565b91506114ab83610d5d565b92508282019050808211156114c3576114c261130b565b5b92915050565b60008190508160005260206000209050919050565b60006020601f8301049050919050565b600082821b905092915050565b60006008830261152b7fffffffffffffffffffffffffffffffffffffffffffffffffffffffffffffffff826114ee565b61153586836114ee565b95508019841693508086168417925050509392505050565b6000819050919050565b600061157261156d61156884610d5d565b61154d565b610d5d565b9050919050565b6000819050919050565b61158c83611557565b6115a061159882611579565b8484546114fb565b825550505050565b600090565b6115b56115a8565b6115c0818484611583565b505050565b5b818110156115e4576115d96000826115ad565b6001810190506115c6565b5050565b601f821115611629576115fa816114c9565b611603846114de565b81016020851015611612578190505b61162661161e856114de565b8301826115c5565b50505b505050565b600082821c905092915050565b600061164c6000198460080261162e565b1980831691505092915050565b6000611665838361163b565b9150826002028217905092915050565b61167e82610ccd565b67ffffffffffffffff81111561169757611696610e5d565b5b6116a18254611225565b6116ac8282856115e8565b600060209050601f8311600181146116df57600084156116cd578287015190505b6116d78582611659565b86555061173f565b601f1984166116ed866114c9565b60005b82811015611715578489015182556001820191506020850194506020810190506116f0565b86831015611732578489015161172e601f89168261163b565b8355505b6001600288020188555050505b505050505050565b7f5468697320626f6f6b20646f65736e2774206578697374730000000000000000600082015250565b600061177d601883610cd8565b915061178882611747565b602082019050919050565b600060208201905081810360008301526117ac81611770565b9050919050565b7f417420746865206d6f6d656e742c20746865206c69627261727920646f65736e60008201527f2774206861766520636f7079206f66207468697320626f6f6b2e000000000000602082015250565b600061180f603a83610cd8565b915061181a826117b3565b604082019050919050565b6000602082019050818103600083015261183e81611802565b9050919050565b7f54686973206164647265737320616c726561647920626f72726f77656420746860008201527f697320626f6f6b2e000000000000000000000000000000000000000000000000602082015250565b60006118a1602883610cd8565b91506118ac82611845565b604082019050919050565b600060208201905081810360008301526118d081611894565b9050919050565b60006118e282610d5d565b9150600082036118f5576118f461130b565b5b600182039050919050565b6000604082019050818103600083015261191a8185610d24565b9050611929602083018461105d565b9392505050565b7f4f776e61626c653a206e6577206f776e657220697320746865207a65726f206160008201527f6464726573730000000000000000000000000000000000000000000000000000602082015250565b600061198c602683610cd8565b915061199782611930565b604082019050919050565b600060208201905081810360008301526119bb8161197f565b9050919050565b7f4f776e61626c653a2063616c6c6572206973206e6f7420746865206f776e6572600082015250565b60006119f8602083610cd8565b9150611a03826119c2565b602082019050919050565b60006020820190508181036000830152611a27816119eb565b905091905056fea264697066735822122080cf8183f54f17c0669a4600e5bac4d3da663a57781936568156acb05b33e3f464736f6c63430008110033",
    "linkReferences": {},
    "deployedLinkReferences": {}
}