{
    "_format": "hh-sol-artifact-1",
    "contractName": "BookLibrary",
    "sourceName": "contracts/BookLibrary.sol",
    "abi": [
        {
            "anonymous": false,
            "inputs": [
                {
                    "indexed": false,
                    "internalType": "string",
                    "name": "_bookName",
                    "type": "string"
                },
                {
                    "indexed": false,
                    "internalType": "uint256",
                    "name": "_copies",
                    "type": "uint256"
                }
            ],
            "name": "AddedBook",
            "type": "event"
        },
        {
            "anonymous": false,
            "inputs": [
                {
                    "indexed": false,
                    "internalType": "string",
                    "name": "_bookName",
                    "type": "string"
                },
                {
                    "indexed": false,
                    "internalType": "uint256",
                    "name": "_copies",
                    "type": "uint256"
                }
            ],
            "name": "AdjustCopies",
            "type": "event"
        },
        {
            "anonymous": false,
            "inputs": [
                {
                    "indexed": false,
                    "internalType": "string",
                    "name": "_bookName",
                    "type": "string"
                },
                {
                    "indexed": false,
                    "internalType": "address",
                    "name": "_address",
                    "type": "address"
                }
            ],
            "name": "BorrowedBook",
            "type": "event"
        },
        {
            "anonymous": false,
            "inputs": [
                {
                    "indexed": true,
                    "internalType": "address",
                    "name": "previousOwner",
                    "type": "address"
                },
                {
                    "indexed": true,
                    "internalType": "address",
                    "name": "newOwner",
                    "type": "address"
                }
            ],
            "name": "OwnershipTransferred",
            "type": "event"
        },
        {
            "anonymous": false,
            "inputs": [
                {
                    "indexed": false,
                    "internalType": "string",
                    "name": "_bookName",
                    "type": "string"
                },
                {
                    "indexed": false,
                    "internalType": "address",
                    "name": "_address",
                    "type": "address"
                }
            ],
            "name": "ReturnedBook",
            "type": "event"
        },
        {
            "inputs": [
                {
                    "internalType": "string",
                    "name": "_bookName",
                    "type": "string"
                },
                {
                    "internalType": "uint256",
                    "name": "_copies",
                    "type": "uint256"
                }
            ],
            "name": "addBook",
            "outputs": [],
            "stateMutability": "nonpayable",
            "type": "function"
        },
        {
            "inputs": [
                {
                    "internalType": "uint256",
                    "name": "",
                    "type": "uint256"
                }
            ],
            "name": "bookKeys",
            "outputs": [
                {
                    "internalType": "bytes32",
                    "name": "",
                    "type": "bytes32"
                }
            ],
            "stateMutability": "view",
            "type": "function"
        },
        {
            "inputs": [
                {
                    "internalType": "bytes32",
                    "name": "",
                    "type": "bytes32"
                }
            ],
            "name": "books",
            "outputs": [
                {
                    "internalType": "string",
                    "name": "name",
                    "type": "string"
                },
                {
                    "internalType": "uint256",
                    "name": "copies",
                    "type": "uint256"
                }
            ],
            "stateMutability": "view",
            "type": "function"
        },
        {
            "inputs": [
                {
                    "internalType": "string",
                    "name": "_bookName",
                    "type": "string"
                }
            ],
            "name": "borrowBook",
            "outputs": [],
            "stateMutability": "nonpayable",
            "type": "function"
        },
        {
            "inputs": [
                {
                    "internalType": "address",
                    "name": "",
                    "type": "address"
                },
                {
                    "internalType": "bytes32",
                    "name": "",
                    "type": "bytes32"
                }
            ],
            "name": "borrowedBook",
            "outputs": [
                {
                    "internalType": "bool",
                    "name": "",
                    "type": "bool"
                }
            ],
            "stateMutability": "view",
            "type": "function"
        },
        {
            "inputs": [],
            "name": "getNumberOfBooks",
            "outputs": [
                {
                    "internalType": "uint256",
                    "name": "_numberOfBooks",
                    "type": "uint256"
                }
            ],
            "stateMutability": "view",
            "type": "function"
        },
        {
            "inputs": [],
            "name": "owner",
            "outputs": [
                {
                    "internalType": "address",
                    "name": "",
                    "type": "address"
                }
            ],
            "stateMutability": "view",
            "type": "function"
        },
        {
            "inputs": [],
            "name": "renounceOwnership",
            "outputs": [],
            "stateMutability": "nonpayable",
            "type": "function"
        },
        {
            "inputs": [
                {
                    "internalType": "string",
                    "name": "_bookName",
                    "type": "string"
                }
            ],
            "name": "returnBook",
            "outputs": [],
            "stateMutability": "nonpayable",
            "type": "function"
        },
        {
            "inputs": [
                {
                    "internalType": "bytes32",
                    "name": "message",
                    "type": "bytes32"
                },
                {
                    "internalType": "uint8",
                    "name": "v",
                    "type": "uint8"
                },
                {
                    "internalType": "bytes32",
                    "name": "r",
                    "type": "bytes32"
                },
                {
                    "internalType": "bytes32",
                    "name": "s",
                    "type": "bytes32"
                }
            ],
            "name": "sign",
            "outputs": [],
            "stateMutability": "nonpayable",
            "type": "function"
        },
        {
            "inputs": [],
            "name": "signer",
            "outputs": [
                {
                    "internalType": "address",
                    "name": "",
                    "type": "address"
                }
            ],
            "stateMutability": "view",
            "type": "function"
        },
        {
            "inputs": [
                {
                    "internalType": "address",
                    "name": "newOwner",
                    "type": "address"
                }
            ],
            "name": "transferOwnership",
            "outputs": [],
            "stateMutability": "nonpayable",
            "type": "function"
        }
    ],
    "bytecode": "0x608060405234801561001057600080fd5b5061002d61002261003260201b60201c565b61003a60201b60201c565b6100fe565b600033905090565b60008060009054906101000a900473ffffffffffffffffffffffffffffffffffffffff169050816000806101000a81548173ffffffffffffffffffffffffffffffffffffffff021916908373ffffffffffffffffffffffffffffffffffffffff1602179055508173ffffffffffffffffffffffffffffffffffffffff168173ffffffffffffffffffffffffffffffffffffffff167f8be0079c531659141344cd1fd0a4f28419497f9722a3daafe3b4186f6b6457e060405160405180910390a35050565b611d228061010d6000396000f3fe608060405234801561001057600080fd5b50600436106100b45760003560e01c80638625f9d2116100715780638625f9d2146101665780638da5cb5b14610184578063bddc6fa7146101a2578063ced96fe3146101d2578063dae47ab0146101ee578063f2fde38b1461021e576100b4565b80630c0dee70146100b95780631ef49a8c146100ea578063238ac93314610106578063637a387214610124578063715018a61461014057806376a31a721461014a575b600080fd5b6100d360048036038101906100ce9190610dd7565b61023a565b6040516100e1929190610ead565b60405180910390f35b61010460048036038101906100ff9190610f42565b6102e6565b005b61010e610485565b60405161011b9190610fd0565b60405180910390f35b61013e60048036038101906101399190611147565b6104ab565b005b6101486106bd565b005b610164600480360381019061015f91906111dc565b6106d1565b005b61016e610792565b60405161017b9190611243565b60405180910390f35b61018c61079f565b6040516101999190610fd0565b60405180910390f35b6101bc60048036038101906101b7919061128a565b6107c8565b6040516101c991906112e5565b60405180910390f35b6101ec60048036038101906101e79190611300565b6107f7565b005b61020860048036038101906102039190611349565b610af5565b6040516102159190611385565b60405180910390f35b610238600480360381019061023391906113a0565b610b19565b005b600360205280600052604060002060009150905080600001805461025d906113fc565b80601f0160208091040260200160405190810160405280929190818152602001828054610289906113fc565b80156102d65780601f106102ab576101008083540402835291602001916102d6565b820191906000526020600020905b8154815290600101906020018083116102b957829003601f168201915b5050505050908060010154905082565b600082826040516020016102fb92919061145d565b604051602081830303815290604052805190602001209050600460003373ffffffffffffffffffffffffffffffffffffffff1673ffffffffffffffffffffffffffffffffffffffff168152602001908152602001600020600082815260200190815260200160002060009054906101000a900460ff166103b0576040517f08c379a00000000000000000000000000000000000000000000000000000000081526004016103a7906114c2565b60405180910390fd5b6000600460003373ffffffffffffffffffffffffffffffffffffffff1673ffffffffffffffffffffffffffffffffffffffff168152602001908152602001600020600083815260200190815260200160002060006101000a81548160ff02191690831515021790555060036000828152602001908152602001600020600101600081548092919061044090611511565b91905055507f6786f6abe154978de9c8a6614b761e1531cb6ff9856273260078a5346956228b83833360405161047893929190611586565b60405180910390a1505050565b600160009054906101000a900473ffffffffffffffffffffffffffffffffffffffff1681565b6104b3610b9c565b81816000829050600081511180156104cb5750600082115b61050a576040517f08c379a000000000000000000000000000000000000000000000000000000000815260040161050190611604565b60405180910390fd5b606060008660405160200161051f9190611655565b604051602081830303815290604052805190602001209050600060036000838152602001908152602001600020600001805461055a906113fc565b905011156105e35785600360008381526020019081526020016000206001016000828254610588919061166c565b925050819055507ffe545c92d053c8bc4ddb5d531460c004b9d678f817d5e81a888f7c5cae1f14058760036000848152602001908152602001600020600101546040516105d6929190610ead565b60405180910390a16106b4565b604051806060016040528088815260200187815260200183815250600360008381526020019081526020016000206000820151816000019081610626919061184c565b5060208201518160010155604082015181600201908051906020019061064d929190610ce6565b5090505060028190806001815401808255809150506001900390600052602060002001600090919091909150557f94d055d37a53d04c9314a2b6c9d1199dc9330c877f88717dd6a030aed2c3b55087876040516106ab929190610ead565b60405180910390a15b50505050505050565b6106c5610b9c565b6106cf6000610c1a565b565b6000846040516020016106e4919061198b565b6040516020818303038152906040528051906020012090506001818585856040516000815260200160405260405161071f94939291906119c0565b6020604051602081039080840390855afa158015610741573d6000803e3d6000fd5b50505060206040510351600160006101000a81548173ffffffffffffffffffffffffffffffffffffffff021916908373ffffffffffffffffffffffffffffffffffffffff1602179055505050505050565b6000600280549050905090565b60008060009054906101000a900473ffffffffffffffffffffffffffffffffffffffff16905090565b60046020528160005260406000206020528060005260406000206000915091509054906101000a900460ff1681565b806000600360008360405160200161080f9190611655565b6040516020818303038152906040528051906020012081526020019081526020016000206000018054610841906113fc565b905003610883576040517f08c379a000000000000000000000000000000000000000000000000000000000815260040161087a90611a51565b60405180910390fd5b6000826040516020016108969190611655565b6040516020818303038152906040528051906020012090506000600360008381526020019081526020016000206001015411610907576040517f08c379a00000000000000000000000000000000000000000000000000000000081526004016108fe90611ae3565b60405180910390fd5b60001515600460003373ffffffffffffffffffffffffffffffffffffffff1673ffffffffffffffffffffffffffffffffffffffff168152602001908152602001600020600083815260200190815260200160002060009054906101000a900460ff161515146109ab576040517f08c379a00000000000000000000000000000000000000000000000000000000081526004016109a290611b75565b60405180910390fd5b6001600460003373ffffffffffffffffffffffffffffffffffffffff1673ffffffffffffffffffffffffffffffffffffffff168152602001908152602001600020600083815260200190815260200160002060006101000a81548160ff021916908315150217905550600360008281526020019081526020016000206001016000815480929190610a3b90611b95565b919050555060036000828152602001908152602001600020600201339080600181540180825580915050600190039060005260206000200160009091909190916101000a81548173ffffffffffffffffffffffffffffffffffffffff021916908373ffffffffffffffffffffffffffffffffffffffff1602179055507fd753078f5c8fe6a92948408295362b4dcc47c348c5e915c6672771bd4a6b3d278333604051610ae8929190611bbe565b60405180910390a1505050565b60028181548110610b0557600080fd5b906000526020600020016000915090505481565b610b21610b9c565b600073ffffffffffffffffffffffffffffffffffffffff168173ffffffffffffffffffffffffffffffffffffffff1603610b90576040517f08c379a0000000000000000000000000000000000000000000000000000000008152600401610b8790611c60565b60405180910390fd5b610b9981610c1a565b50565b610ba4610cde565b73ffffffffffffffffffffffffffffffffffffffff16610bc261079f565b73ffffffffffffffffffffffffffffffffffffffff1614610c18576040517f08c379a0000000000000000000000000000000000000000000000000000000008152600401610c0f90611ccc565b60405180910390fd5b565b60008060009054906101000a900473ffffffffffffffffffffffffffffffffffffffff169050816000806101000a81548173ffffffffffffffffffffffffffffffffffffffff021916908373ffffffffffffffffffffffffffffffffffffffff1602179055508173ffffffffffffffffffffffffffffffffffffffff168173ffffffffffffffffffffffffffffffffffffffff167f8be0079c531659141344cd1fd0a4f28419497f9722a3daafe3b4186f6b6457e060405160405180910390a35050565b600033905090565b828054828255906000526020600020908101928215610d5f579160200282015b82811115610d5e5782518260006101000a81548173ffffffffffffffffffffffffffffffffffffffff021916908373ffffffffffffffffffffffffffffffffffffffff16021790555091602001919060010190610d06565b5b509050610d6c9190610d70565b5090565b5b80821115610d89576000816000905550600101610d71565b5090565b6000604051905090565b600080fd5b600080fd5b6000819050919050565b610db481610da1565b8114610dbf57600080fd5b50565b600081359050610dd181610dab565b92915050565b600060208284031215610ded57610dec610d97565b5b6000610dfb84828501610dc2565b91505092915050565b600081519050919050565b600082825260208201905092915050565b60005b83811015610e3e578082015181840152602081019050610e23565b60008484015250505050565b6000601f19601f8301169050919050565b6000610e6682610e04565b610e708185610e0f565b9350610e80818560208601610e20565b610e8981610e4a565b840191505092915050565b6000819050919050565b610ea781610e94565b82525050565b60006040820190508181036000830152610ec78185610e5b565b9050610ed66020830184610e9e565b9392505050565b600080fd5b600080fd5b600080fd5b60008083601f840112610f0257610f01610edd565b5b8235905067ffffffffffffffff811115610f1f57610f1e610ee2565b5b602083019150836001820283011115610f3b57610f3a610ee7565b5b9250929050565b60008060208385031215610f5957610f58610d97565b5b600083013567ffffffffffffffff811115610f7757610f76610d9c565b5b610f8385828601610eec565b92509250509250929050565b600073ffffffffffffffffffffffffffffffffffffffff82169050919050565b6000610fba82610f8f565b9050919050565b610fca81610faf565b82525050565b6000602082019050610fe56000830184610fc1565b92915050565b600080fd5b7f4e487b7100000000000000000000000000000000000000000000000000000000600052604160045260246000fd5b61102882610e4a565b810181811067ffffffffffffffff8211171561104757611046610ff0565b5b80604052505050565b600061105a610d8d565b9050611066828261101f565b919050565b600067ffffffffffffffff82111561108657611085610ff0565b5b61108f82610e4a565b9050602081019050919050565b82818337600083830152505050565b60006110be6110b98461106b565b611050565b9050828152602081018484840111156110da576110d9610feb565b5b6110e584828561109c565b509392505050565b600082601f83011261110257611101610edd565b5b81356111128482602086016110ab565b91505092915050565b61112481610e94565b811461112f57600080fd5b50565b6000813590506111418161111b565b92915050565b6000806040838503121561115e5761115d610d97565b5b600083013567ffffffffffffffff81111561117c5761117b610d9c565b5b611188858286016110ed565b925050602061119985828601611132565b9150509250929050565b600060ff82169050919050565b6111b9816111a3565b81146111c457600080fd5b50565b6000813590506111d6816111b0565b92915050565b600080600080608085870312156111f6576111f5610d97565b5b600061120487828801610dc2565b9450506020611215878288016111c7565b935050604061122687828801610dc2565b925050606061123787828801610dc2565b91505092959194509250565b60006020820190506112586000830184610e9e565b92915050565b61126781610faf565b811461127257600080fd5b50565b6000813590506112848161125e565b92915050565b600080604083850312156112a1576112a0610d97565b5b60006112af85828601611275565b92505060206112c085828601610dc2565b9150509250929050565b60008115159050919050565b6112df816112ca565b82525050565b60006020820190506112fa60008301846112d6565b92915050565b60006020828403121561131657611315610d97565b5b600082013567ffffffffffffffff81111561133457611333610d9c565b5b611340848285016110ed565b91505092915050565b60006020828403121561135f5761135e610d97565b5b600061136d84828501611132565b91505092915050565b61137f81610da1565b82525050565b600060208201905061139a6000830184611376565b92915050565b6000602082840312156113b6576113b5610d97565b5b60006113c484828501611275565b91505092915050565b7f4e487b7100000000000000000000000000000000000000000000000000000000600052602260045260246000fd5b6000600282049050600182168061141457607f821691505b602082108103611427576114266113cd565b5b50919050565b600081905092915050565b6000611444838561142d565b935061145183858461109c565b82840190509392505050565b600061146a828486611438565b91508190509392505050565b7f596f7520646f6e27742068617665207468697320626f6f6b0000000000000000600082015250565b60006114ac601883610e0f565b91506114b782611476565b602082019050919050565b600060208201905081810360008301526114db8161149f565b9050919050565b7f4e487b7100000000000000000000000000000000000000000000000000000000600052601160045260246000fd5b600061151c82610e94565b91507fffffffffffffffffffffffffffffffffffffffffffffffffffffffffffffffff820361154e5761154d6114e2565b5b600182019050919050565b60006115658385610e0f565b935061157283858461109c565b61157b83610e4a565b840190509392505050565b600060408201905081810360008301526115a1818587611559565b90506115b06020830184610fc1565b949350505050565b7f426f6f6b2064617461206973206e6f742076616c696400000000000000000000600082015250565b60006115ee601683610e0f565b91506115f9826115b8565b602082019050919050565b6000602082019050818103600083015261161d816115e1565b9050919050565b600061162f82610e04565b611639818561142d565b9350611649818560208601610e20565b80840191505092915050565b60006116618284611624565b915081905092915050565b600061167782610e94565b915061168283610e94565b925082820190508082111561169a576116996114e2565b5b92915050565b60008190508160005260206000209050919050565b60006020601f8301049050919050565b600082821b905092915050565b6000600883026117027fffffffffffffffffffffffffffffffffffffffffffffffffffffffffffffffff826116c5565b61170c86836116c5565b95508019841693508086168417925050509392505050565b6000819050919050565b600061174961174461173f84610e94565b611724565b610e94565b9050919050565b6000819050919050565b6117638361172e565b61177761176f82611750565b8484546116d2565b825550505050565b600090565b61178c61177f565b61179781848461175a565b505050565b5b818110156117bb576117b0600082611784565b60018101905061179d565b5050565b601f821115611800576117d1816116a0565b6117da846116b5565b810160208510156117e9578190505b6117fd6117f5856116b5565b83018261179c565b50505b505050565b600082821c905092915050565b600061182360001984600802611805565b1980831691505092915050565b600061183c8383611812565b9150826002028217905092915050565b61185582610e04565b67ffffffffffffffff81111561186e5761186d610ff0565b5b61187882546113fc565b6118838282856117bf565b600060209050601f8311600181146118b657600084156118a4578287015190505b6118ae8582611830565b865550611916565b601f1984166118c4866116a0565b60005b828110156118ec578489015182556001820191506020850194506020810190506118c7565b868310156119095784890151611905601f891682611812565b8355505b6001600288020188555050505b505050505050565b7f19457468657265756d205369676e6564204d6573736167653a0a333200000000600082015250565b6000611954601c8361142d565b915061195f8261191e565b601c82019050919050565b6000819050919050565b61198561198082610da1565b61196a565b82525050565b600061199682611947565b91506119a28284611974565b60208201915081905092915050565b6119ba816111a3565b82525050565b60006080820190506119d56000830187611376565b6119e260208301866119b1565b6119ef6040830185611376565b6119fc6060830184611376565b95945050505050565b7f5468697320626f6f6b20646f65736e2774206578697374730000000000000000600082015250565b6000611a3b601883610e0f565b9150611a4682611a05565b602082019050919050565b60006020820190508181036000830152611a6a81611a2e565b9050919050565b7f417420746865206d6f6d656e742c20746865206c69627261727920646f65736e60008201527f2774206861766520636f7079206f66207468697320626f6f6b2e000000000000602082015250565b6000611acd603a83610e0f565b9150611ad882611a71565b604082019050919050565b60006020820190508181036000830152611afc81611ac0565b9050919050565b7f54686973206164647265737320616c726561647920626f72726f77656420746860008201527f697320626f6f6b2e000000000000000000000000000000000000000000000000602082015250565b6000611b5f602883610e0f565b9150611b6a82611b03565b604082019050919050565b60006020820190508181036000830152611b8e81611b52565b9050919050565b6000611ba082610e94565b915060008203611bb357611bb26114e2565b5b600182039050919050565b60006040820190508181036000830152611bd88185610e5b565b9050611be76020830184610fc1565b9392505050565b7f4f776e61626c653a206e6577206f776e657220697320746865207a65726f206160008201527f6464726573730000000000000000000000000000000000000000000000000000602082015250565b6000611c4a602683610e0f565b9150611c5582611bee565b604082019050919050565b60006020820190508181036000830152611c7981611c3d565b9050919050565b7f4f776e61626c653a2063616c6c6572206973206e6f7420746865206f776e6572600082015250565b6000611cb6602083610e0f565b9150611cc182611c80565b602082019050919050565b60006020820190508181036000830152611ce581611ca9565b905091905056fea26469706673582212202ef938e91aaccac90f1402b6595820de6c11acad28e7cff1310fe42d4a42004c64736f6c63430008110033",
    "linkReferences": {},
    "deployedLinkReferences": {}
}